{
  "contractName": "Election",
  "abi": [
    {
      "constant": true,
      "inputs": [],
      "name": "candidatesCount",
      "outputs": [
        {
          "name": "",
          "type": "uint256"
        }
      ],
      "payable": false,
      "stateMutability": "view",
      "type": "function",
      "signature": "0x2d35a8a2"
    },
    {
      "constant": true,
      "inputs": [
        {
          "name": "",
          "type": "uint256"
        }
      ],
      "name": "candidates_aadhaarNumbers",
      "outputs": [
        {
          "name": "",
          "type": "uint64"
        }
      ],
      "payable": false,
      "stateMutability": "view",
      "type": "function",
      "signature": "0x6d7910c9"
    },
    {
      "constant": true,
      "inputs": [],
      "name": "votersCount",
      "outputs": [
        {
          "name": "",
          "type": "uint256"
        }
      ],
      "payable": false,
      "stateMutability": "view",
      "type": "function",
      "signature": "0x98c07938"
    },
    {
      "constant": true,
      "inputs": [
        {
          "name": "",
          "type": "uint256"
        }
      ],
      "name": "voters_aadhaarNumbers",
      "outputs": [
        {
          "name": "",
          "type": "uint64"
        }
      ],
      "payable": false,
      "stateMutability": "view",
      "type": "function",
      "signature": "0xd6af129e"
    },
    {
      "inputs": [],
      "payable": false,
      "stateMutability": "nonpayable",
      "type": "constructor",
      "signature": "constructor"
    },
    {
      "constant": false,
      "inputs": [
        {
          "name": "aadhaarNum",
          "type": "uint64"
        },
        {
          "name": "name",
          "type": "string"
        }
      ],
      "name": "registerCandidate",
      "outputs": [],
      "payable": false,
      "stateMutability": "nonpayable",
      "type": "function",
      "signature": "0xa6ad8049"
    },
    {
      "constant": false,
      "inputs": [
        {
          "name": "aadhaarNum",
          "type": "uint64"
        },
        {
          "name": "name",
          "type": "string"
        }
      ],
      "name": "registerVoter",
      "outputs": [],
      "payable": false,
      "stateMutability": "nonpayable",
      "type": "function",
      "signature": "0xd1ec25d4"
    },
    {
      "constant": false,
      "inputs": [],
      "name": "startElection",
      "outputs": [],
      "payable": false,
      "stateMutability": "nonpayable",
      "type": "function",
      "signature": "0x62d73eb8"
    },
    {
      "constant": false,
      "inputs": [],
      "name": "endElection",
      "outputs": [],
      "payable": false,
      "stateMutability": "nonpayable",
      "type": "function",
      "signature": "0x59f78468"
    },
    {
      "constant": false,
      "inputs": [
        {
          "name": "voter_aadhaarNum",
          "type": "uint64"
        },
        {
          "name": "candidate_aadhaarNum",
          "type": "uint64"
        }
      ],
      "name": "castVote",
      "outputs": [
        {
          "name": "",
          "type": "uint64"
        }
      ],
      "payable": false,
      "stateMutability": "nonpayable",
      "type": "function",
      "signature": "0xc3b3301f"
    },
    {
      "constant": true,
      "inputs": [
        {
          "name": "candidate_aadhaarNum",
          "type": "uint64"
        }
      ],
      "name": "get",
      "outputs": [
        {
          "name": "",
          "type": "uint64"
        }
      ],
      "payable": false,
      "stateMutability": "view",
      "type": "function",
      "signature": "0xada86798"
    },
    {
      "constant": true,
      "inputs": [],
      "name": "electionsState",
      "outputs": [
        {
          "name": "",
          "type": "uint64"
        }
      ],
      "payable": false,
      "stateMutability": "view",
      "type": "function",
      "signature": "0x0e92de2c"
    }
  ],
  "bytecode": "0x60806040523480156200001157600080fd5b5060016000806101000a81548160ff0219169083151502179055506200007f62a98ac76040805190810160405280600781526020017f69726f6e6d616e0000000000000000000000000000000000000000000000000081525062000229640100000000026401000000009004565b620000d3630153158e6040805190810160405280600381526020017f636170000000000000000000000000000000000000000000000000000000000081525062000229640100000000026401000000009004565b620001276301fca0556040805190810160405280600481526020017f74686f720000000000000000000000000000000000000000000000000000000081525062000229640100000000026401000000009004565b6200017b6305f5e0ff6040805190810160405280600581526020017f6469616e6100000000000000000000000000000000000000000000000000000081525062000321640100000000026401000000009004565b620001cf63054c56386040805190810160405280600781526020017f6d73506f7474730000000000000000000000000000000000000000000000000081525062000321640100000000026401000000009004565b620002236304a2cb716040805190810160405280600581526020017f6361726f6c00000000000000000000000000000000000000000000000000000081525062000321640100000000026401000000009004565b620004b1565b6040805190810160405280828152602001600067ffffffffffffffff16815250600360008467ffffffffffffffff1667ffffffffffffffff16815260200190815260200160002060008201518160000190805190602001906200028e92919062000402565b5060208201518160010160006101000a81548167ffffffffffffffff021916908367ffffffffffffffff1602179055509050506001600583908060018154018082558091505090600182039060005260206000209060049182820401919006600802909192909190916101000a81548167ffffffffffffffff021916908367ffffffffffffffff16021790555050505050565b604080519081016040528082815260200160001515815250600460008467ffffffffffffffff1667ffffffffffffffff16815260200190815260200160002060008201518160000190805190602001906200037e92919062000402565b5060208201518160010160006101000a81548160ff0219169083151502179055509050506001600683908060018154018082558091505090600182039060005260206000209060049182820401919006600802909192909190916101000a81548167ffffffffffffffff021916908367ffffffffffffffff16021790555050505050565b828054600181600116156101000203166002900490600052602060002090601f016020900481019282601f106200044557805160ff191683800117855562000476565b8280016001018555821562000476579182015b828111156200047557825182559160200191906001019062000458565b5b50905062000485919062000489565b5090565b620004ae91905b80821115620004aa57600081600090555060010162000490565b5090565b90565b610afd80620004c16000396000f3fe6080604052600436106100af576000357c0100000000000000000000000000000000000000000000000000000000900463ffffffff1680630e92de2c146100b45780632d35a8a2146100f357806359f784681461011e57806362d73eb8146101355780636d7910c91461014c57806398c07938146101af578063a6ad8049146101da578063ada86798146102b6578063c3b3301f14610323578063d1ec25d4146103a4578063d6af129e14610480575b600080fd5b3480156100c057600080fd5b506100c96104e3565b604051808267ffffffffffffffff1667ffffffffffffffff16815260200191505060405180910390f35b3480156100ff57600080fd5b50610108610511565b6040518082815260200191505060405180910390f35b34801561012a57600080fd5b50610133610517565b005b34801561014157600080fd5b5061014a610533565b005b34801561015857600080fd5b506101856004803603602081101561016f57600080fd5b810190808035906020019092919050505061054f565b604051808267ffffffffffffffff1667ffffffffffffffff16815260200191505060405180910390f35b3480156101bb57600080fd5b506101c461058c565b6040518082815260200191505060405180910390f35b3480156101e657600080fd5b506102b4600480360360408110156101fd57600080fd5b81019080803567ffffffffffffffff1690602001909291908035906020019064010000000081111561022e57600080fd5b82018360208201111561024057600080fd5b8035906020019184600183028401116401000000008311171561026257600080fd5b91908080601f016020809104026020016040519081016040528093929190818152602001838380828437600081840152601f19601f820116905080830192505050505050509192919290505050610592565b005b3480156102c257600080fd5b506102f9600480360360208110156102d957600080fd5b81019080803567ffffffffffffffff169060200190929190505050610688565b604051808267ffffffffffffffff1667ffffffffffffffff16815260200191505060405180910390f35b34801561032f57600080fd5b5061037a6004803603604081101561034657600080fd5b81019080803567ffffffffffffffff169060200190929190803567ffffffffffffffff1690602001909291905050506106d0565b604051808267ffffffffffffffff1667ffffffffffffffff16815260200191505060405180910390f35b3480156103b057600080fd5b5061047e600480360360408110156103c757600080fd5b81019080803567ffffffffffffffff169060200190929190803590602001906401000000008111156103f857600080fd5b82018360208201111561040a57600080fd5b8035906020019184600183028401116401000000008311171561042c57600080fd5b91908080601f016020809104026020016040519081016040528093929190818152602001838380828437600081840152601f19601f820116905080830192505050505050509192919290505050610910565b005b34801561048c57600080fd5b506104b9600480360360208110156104a357600080fd5b81019080803590602001909291905050506109ef565b604051808267ffffffffffffffff1667ffffffffffffffff16815260200191505060405180910390f35b6000600115156000809054906101000a900460ff1615151415610509576001905061050e565b600090505b90565b60015481565b60008060006101000a81548160ff021916908315150217905550565b60016000806101000a81548160ff021916908315150217905550565b60058181548110151561055e57fe5b9060005260206000209060049182820401919006600802915054906101000a900467ffffffffffffffff1681565b60025481565b6040805190810160405280828152602001600067ffffffffffffffff16815250600360008467ffffffffffffffff1667ffffffffffffffff16815260200190815260200160002060008201518160000190805190602001906105f5929190610a2c565b5060208201518160010160006101000a81548167ffffffffffffffff021916908367ffffffffffffffff1602179055509050506001600583908060018154018082558091505090600182039060005260206000209060049182820401919006600802909192909190916101000a81548167ffffffffffffffff021916908367ffffffffffffffff16021790555050505050565b6000600360008367ffffffffffffffff1667ffffffffffffffff16815260200190815260200160002060010160009054906101000a900467ffffffffffffffff169050919050565b6000600115156000809054906101000a900460ff161515141515610782576040517f08c379a00000000000000000000000000000000000000000000000000000000081526004018080602001828103825260368152602001807f536f7272792c20656c656374696f6e206973206f76657221206f72204974206981526020017f732079657420746f20626520737461727465642e2e2e0000000000000000000081525060400191505060405180910390fd5b60001515600460008567ffffffffffffffff1667ffffffffffffffff16815260200190815260200160002060010160009054906101000a900460ff161515141515610835576040517f08c379a00000000000000000000000000000000000000000000000000000000081526004018080602001828103825260178152602001807f596f75206861766520616c726561647920766f7465642100000000000000000081525060200191505060405180910390fd5b6001600360008467ffffffffffffffff1667ffffffffffffffff16815260200190815260200160002060010160009054906101000a900467ffffffffffffffff1601600360008467ffffffffffffffff1667ffffffffffffffff16815260200190815260200160002060010160006101000a81548167ffffffffffffffff021916908367ffffffffffffffff1602179055506001600460008567ffffffffffffffff1667ffffffffffffffff16815260200190815260200160002060010160006101000a81548160ff02191690831515021790555092915050565b604080519081016040528082815260200160001515815250600460008467ffffffffffffffff1667ffffffffffffffff168152602001908152602001600020600082015181600001908051906020019061096b929190610a2c565b5060208201518160010160006101000a81548160ff0219169083151502179055509050506001600683908060018154018082558091505090600182039060005260206000209060049182820401919006600802909192909190916101000a81548167ffffffffffffffff021916908367ffffffffffffffff16021790555050505050565b6006818154811015156109fe57fe5b9060005260206000209060049182820401919006600802915054906101000a900467ffffffffffffffff1681565b828054600181600116156101000203166002900490600052602060002090601f016020900481019282601f10610a6d57805160ff1916838001178555610a9b565b82800160010185558215610a9b579182015b82811115610a9a578251825591602001919060010190610a7f565b5b509050610aa89190610aac565b5090565b610ace91905b80821115610aca576000816000905550600101610ab2565b5090565b9056fea165627a7a7230582046b6a57959a02349d18b2efb1e5f11741d3a0890e60fa872329099324a8ff9ea0029",
  "source": "pragma solidity ^0.5.0;\n\ncontract Election {\n    struct Candidate {\n        string candidateName;\n        uint64 votes;\n    }\n    \n    bool electionState;\n    \n    constructor() public{\n        electionState = true;\n        registerCandidate(11111111,'ironman');\n        registerCandidate(22222222,'cap');\n        registerCandidate(33333333,'thor');\n        registerVoter(99999999,'diana');\n        registerVoter(88888888,'msPotts');\n        registerVoter(77777777,'carol');\n\n    }\n    \n    struct Voter {\n        string voterName;\n        bool voted;\n        \n    }\n    uint public candidatesCount;\n    uint public votersCount;\n    \n    mapping(uint64 => Candidate) candidates;\n    mapping(uint64 => Voter) voters;\n    \n    uint64[] public candidates_aadhaarNumbers;\n    uint64[] public voters_aadhaarNumbers;\n    \n    function registerCandidate(uint64 aadhaarNum, string memory name) public{\n        candidates[aadhaarNum] = Candidate(name, 0);\n        candidates_aadhaarNumbers.push(aadhaarNum) -1;\n    }\n    \n    function registerVoter(uint64 aadhaarNum, string memory name) public{\n        voters[aadhaarNum] = Voter(name, false);\n        voters_aadhaarNumbers.push(aadhaarNum) -1;\n    }\n    \n    function startElection() public{\n        electionState = true;\n    }\n    \n    function endElection() public{\n        electionState = false;\n    }\n    \n    function castVote(uint64 voter_aadhaarNum, uint64 candidate_aadhaarNum) public returns (uint64){\n        require(electionState == true, \"Sorry, election is over! or It is yet to be started...\");\n        require(voters[voter_aadhaarNum].voted == false, \"You have already voted!\");\n        candidates[candidate_aadhaarNum].votes = candidates[candidate_aadhaarNum].votes + 1;\n        voters[voter_aadhaarNum].voted = true;\n    }\n    \n    function get(uint64 candidate_aadhaarNum) public view returns (uint64) {\n    return candidates[candidate_aadhaarNum].votes;\n    }\n    function electionsState() public view returns (uint64) {\n    if(electionState==true){\n        return 1;\n    }else{\n        return 0;\n    }\n    }\n}",
  "sourcePath": "/home/yashwant/election2/contracts/Election.sol",
  "compiler": {
    "name": "solc",
    "version": "0.5.0+commit.1d4f565a.Emscripten.clang"
  },
  "schemaVersion": "3.0.0",
  "updatedAt": "2019-04-11T02:37:08.023Z",
  "devdoc": {
    "methods": {}
  },
  "userdoc": {
    "methods": {}
  }
}